{
  "contractName": "FollowersList2",
  "abi": [
    {
      "inputs": [
        {
          "internalType": "address",
          "name": "ups",
          "type": "address"
        }
      ],
      "name": "getUPlist",
      "outputs": [
        {
          "internalType": "address[]",
          "name": "",
          "type": "address[]"
        }
      ],
      "stateMutability": "view",
      "type": "function",
      "constant": true
    },
    {
      "inputs": [
        {
          "internalType": "address",
          "name": "ups",
          "type": "address"
        }
      ],
      "name": "addUP",
      "outputs": [],
      "stateMutability": "nonpayable",
      "type": "function"
    },
    {
      "inputs": [],
      "name": "getSender",
      "outputs": [
        {
          "internalType": "address",
          "name": "",
          "type": "address"
        }
      ],
      "stateMutability": "view",
      "type": "function",
      "constant": true
    }
  ],
  "bytecode": "0x608060405234801561001057600080fd5b506103f6806100206000396000f3fe608060405234801561001057600080fd5b50600436106100415760003560e01c80635e01eb5a1461004657806396b36bdc14610064578063ce0ff31314610094575b600080fd5b61004e6100b0565b60405161005b9190610267565b60405180910390f35b61007e600480360381019061007991906102b3565b6100b8565b60405161008b919061039e565b60405180910390f35b6100ae60048036038101906100a991906102b3565b610184565b005b600033905090565b60606000808373ffffffffffffffffffffffffffffffffffffffff1673ffffffffffffffffffffffffffffffffffffffff16815260200190815260200160002080548060200260200160405190810160405280929190818152602001828054801561017857602002820191906000526020600020905b8160009054906101000a900473ffffffffffffffffffffffffffffffffffffffff1673ffffffffffffffffffffffffffffffffffffffff168152602001906001019080831161012e575b50505050509050919050565b6000803373ffffffffffffffffffffffffffffffffffffffff1673ffffffffffffffffffffffffffffffffffffffff168152602001908152602001600020819080600181540180825580915050600190039060005260206000200160009091909190916101000a81548173ffffffffffffffffffffffffffffffffffffffff021916908373ffffffffffffffffffffffffffffffffffffffff16021790555050565b600073ffffffffffffffffffffffffffffffffffffffff82169050919050565b600061025182610226565b9050919050565b61026181610246565b82525050565b600060208201905061027c6000830184610258565b92915050565b600080fd5b61029081610246565b811461029b57600080fd5b50565b6000813590506102ad81610287565b92915050565b6000602082840312156102c9576102c8610282565b5b60006102d78482850161029e565b91505092915050565b600081519050919050565b600082825260208201905092915050565b6000819050602082019050919050565b61031581610246565b82525050565b6000610327838361030c565b60208301905092915050565b6000602082019050919050565b600061034b826102e0565b61035581856102eb565b9350610360836102fc565b8060005b83811015610391578151610378888261031b565b975061038383610333565b925050600181019050610364565b5085935050505092915050565b600060208201905081810360008301526103b88184610340565b90509291505056fea264697066735822122073eabdea580387d3d8db038e17daa29499928c2c3bf1ee5c93ba8ab8062a3a1c64736f6c63430008100033",
  "immutableReferences": {},
  "source": "// SPDX-License-Identifier: MIT\npragma solidity >=0.4.22 <0.9.0;\n\n\ncontract FollowersList2 {\n\n    //maps an address to an address array\n    //As an example your address to a list of addresses you are interested in.  This supports multiple people having an address book\n\n    mapping(address => address[]) private _addresses;\n\n\n    //returns the list of addresses in the _addresses map\n    function getUPlist(address ups) public view returns (address[] memory) {\n        return _addresses[ups];\n    }\n\n    //adds address to your list of addresses in the _addresses map.\n    //Uses push since it is an array\n    function addUP(address ups) public {\n        _addresses[msg.sender].push(ups);\n    }\n     \n    function getSender() public view returns (address) {\n        return address(msg.sender);\n    }\n\n\n}\n",
  "sourcePath": "/opt/luksojs/contracts/FollowersList2.sol",
  "compiler": {
    "name": "solc",
    "version": "0.8.16+commit.07a7930e.Emscripten.clang"
  },
  "schemaVersion": "3.4.9",
  "updatedAt": "2022-08-20T06:46:27.040Z",
  "networkType": "ethereum",
  "devdoc": {
    "kind": "dev",
    "methods": {},
    "version": 1
  },
  "userdoc": {
    "kind": "user",
    "methods": {},
    "version": 1
  }
}