{
  "contractName": "FollowersList",
  "abi": [
    {
      "inputs": [
        {
          "internalType": "address",
          "name": "ups",
          "type": "address"
        }
      ],
      "name": "getUPlist",
      "outputs": [
        {
          "internalType": "address[]",
          "name": "",
          "type": "address[]"
        }
      ],
      "stateMutability": "view",
      "type": "function",
      "constant": true
    },
    {
      "inputs": [
        {
          "internalType": "address",
          "name": "ups",
          "type": "address"
        }
      ],
      "name": "addUP",
      "outputs": [],
      "stateMutability": "nonpayable",
      "type": "function"
    }
  ],
  "bytecode": "0x608060405234801561001057600080fd5b5061039b806100206000396000f3fe608060405234801561001057600080fd5b50600436106100365760003560e01c806396b36bdc1461003b578063ce0ff3131461006b575b600080fd5b61005560048036038101906100509190610258565b610087565b6040516100629190610343565b60405180910390f35b61008560048036038101906100809190610258565b610153565b005b60606000808373ffffffffffffffffffffffffffffffffffffffff1673ffffffffffffffffffffffffffffffffffffffff16815260200190815260200160002080548060200260200160405190810160405280929190818152602001828054801561014757602002820191906000526020600020905b8160009054906101000a900473ffffffffffffffffffffffffffffffffffffffff1673ffffffffffffffffffffffffffffffffffffffff16815260200190600101908083116100fd575b50505050509050919050565b6000803373ffffffffffffffffffffffffffffffffffffffff1673ffffffffffffffffffffffffffffffffffffffff168152602001908152602001600020819080600181540180825580915050600190039060005260206000200160009091909190916101000a81548173ffffffffffffffffffffffffffffffffffffffff021916908373ffffffffffffffffffffffffffffffffffffffff16021790555050565b600080fd5b600073ffffffffffffffffffffffffffffffffffffffff82169050919050565b6000610225826101fa565b9050919050565b6102358161021a565b811461024057600080fd5b50565b6000813590506102528161022c565b92915050565b60006020828403121561026e5761026d6101f5565b5b600061027c84828501610243565b91505092915050565b600081519050919050565b600082825260208201905092915050565b6000819050602082019050919050565b6102ba8161021a565b82525050565b60006102cc83836102b1565b60208301905092915050565b6000602082019050919050565b60006102f082610285565b6102fa8185610290565b9350610305836102a1565b8060005b8381101561033657815161031d88826102c0565b9750610328836102d8565b925050600181019050610309565b5085935050505092915050565b6000602082019050818103600083015261035d81846102e5565b90509291505056fea264697066735822122018962462f47f3050931e0096eb219f457a625e3ed392694ba30ff7ccb5dccace64736f6c63430008100033",
  "immutableReferences": {},
  "source": "// SPDX-License-Identifier: MIT\npragma solidity ^0.8.16;\n\n\ncontract FollowersList {\n\n    //maps an address to an address array\n    //As an example your address to a list of addresses you are interested in.  This supports multiple people having an address book\n\n    mapping(address => address[]) private _addresses;\n\n\n    //returns the list of addresses in the _addresses map\n    function getUPlist(address ups) public view returns (address[] memory) {\n        return _addresses[ups];\n    }\n\n    //adds address to your list of addresses in the _addresses map.\n    //Uses push since it is an array\n    function addUP(address ups) public {\n        _addresses[msg.sender].push(ups);\n    }\n\n\n}\n",
  "sourcePath": "/opt/luksojs/contracts/FollowersList.sol",
  "compiler": {
    "name": "solc",
    "version": "0.8.16+commit.07a7930e.Emscripten.clang"
  },
  "schemaVersion": "3.4.9",
  "updatedAt": "2022-08-18T21:09:20.139Z",
  "networkType": "ethereum",
  "devdoc": {
    "kind": "dev",
    "methods": {},
    "version": 1
  },
  "userdoc": {
    "kind": "user",
    "methods": {},
    "version": 1
  }
}